S021000070617469656E74206D6F6E69746F72696E672073797374656D2E73726563E3
S11300000C94A7000C94C4000C94C4000C945103E9
S11300100C94C4000C94C4000C94C4000C94C4004C
S11300200C94C4000C94C4000C94C4000C94C4003C
S11300300C94C4000C94C4000C94C4000C94C4002C
S11300400C94C4000C94C4000C94C4000C94C4001C
S11300500C94C40000407A10F35A00A0724E1809A0
S11300600010A5D4E80000E87648170000E40B541B
S1130070020000CA9A3B000000E1F50500008096EA
S11300809800000040420F000000A086010000001C
S1130090102700000000E8030000000064000000D6
S11300A000000A00000000000100000000002C769F
S11300B0D888DC674F0823DFC1DFAE59E1B1B796BA
S11300C0E5E3E453C63AE651997696E8E6C2842617
S11300D0EB898C9B62ED407C6FFCEFBC9C9F40F2F3
S11300E0BAA56FA5F490055A2AF75C936B6CF9676F
S11300F06DC11BFCE0E40D47FEF520E6B500D0ED34
S1130100902E0300943577050080841E080000209B
S11301104E0A000000C80C333333330F986E128339
S11301201141EF8D2114893BE65516CFFEE6DB180D
S1130130D1844B381BF77C1D901DA4BBE4242032D2
S113014084725E228100C9F124ECA1E53D271124CB
S11301501FBECFE5D8E0DEBFCDBF11E0A0E6B0E022
S1130160EAECF7E102C005900D92AA30B107D9F785
S113017021E0AAE0B1E001C01D92AD32B207E1F77F
S11301800E94E3040C94E30B0C940000672B09F029
S11301909FC0009711F4D89808958130910511F407
S11301A0D99808958230910511F4DA98089583302E
S11301B0910511F4DB9808958430910511F4DC98CD
S11301C008958530910511F4DD98089586309105E0
S11301D011F4DE9808958730910511F4DF9808959D
S11301E08A30910511F4C09808958B30910511F46B
S11301F0C19808958C30910511F4C29808958D30FA
S1130200910511F4C39808958E30910511F4C498A2
S113021008958F30910511F4C598089580319105A2
S113022011F4C69808958131910511F4C798089581
S11302308431910511F4A89808958531910511F43C
S1130240A99808958631910511F4AA9808958731E3
S1130250910511F4AB9808958831910511F4AC9887
S113026008958931910511F4AD9808958A31910565
S113027011F4AE9808958B31910511F4AF98089557
S11302808E31910511F4909808958F31910511F4F0
S1130290919808958032910511F4929808958132CD
S11302A0910511F4939808958232910511F494986C
S11302B008958332910511F4959808958432910537
S11302C011F496980895859709F09FC0979808951A
S11302D0009711F4D89A08958130910511F4D99AB0
S11302E008958230910511F4DA9A089583309105C6
S11302F011F4DB9A08958430910511F4DC9A089581
S11303008530910511F4DD9A08958630910511F434
S1130310DE9A08958730910511F4DF9A08958A30A2
S1130320910511F4C09A08958B30910511F4C19A86
S113033008958C30910511F4C29A08958D30910579
S113034011F4C39A08958E30910511F4C49A089556
S11303508F30910511F4C59A08958031910511F4F7
S1130360C69A08958131910511F4C79A089584318C
S1130370910511F4A89A08958531910511F4A99A6B
S113038008958631910511F4AA9A0895873191054B
S113039011F4AB9A08958831910511F4AC9A08953B
S11303A08931910511F4AD9A08958A31910511F4BA
S11303B0AE9A08958B31910511F4AF9A08958E3158
S11303C0910511F4909A08958F31910511F4919A41
S11303D008958032910511F4929A0895813291051D
S11303E011F4939A08958232910511F4949A089520
S11303F08332910511F4959A08958432910511F48C
S1130400969A0895859709F4979A0895CF93C82FDB
S113041080FF07C061E070E082E290E00E94C600C5
S113042006C060E070E082E290E00E94C600C1FF76
S113043007C061E070E083E290E00E94C60006C05D
S113044060E070E083E290E00E94C600C2FF07C053
S113045061E070E084E290E00E94C60006C060E0C3
S113046070E084E290E00E94C600C3FF07C061E030
S113047070E085E290E00E94C60006C060E070E093
S113048085E290E00E94C600CF910895CF93C82FD3
S113049060E070E080E290E00E94C6008C2F0E9431
S11304A0060261E070E081E290E00E94C60089EFFC
S11304B090E00197F1F700C0000060E070E081E295
S11304C090E00E94C60089EF90E00197F1F700C028
S11304D00000CF91089580E00E94460281E00E94CE
S11304E04602089580E00E94060287E893E101979E
S11304F0F1F700C0000083E00E94460281EE94E020
S11305000197F1F700C0000083E00E9446028DEBE2
S11305109AE00197F1F700C0000083E00E944602D0
S113052082E00E94460282E00E94460288E00E9425
S1130530460280E00E9446028CE00E94460280E06F
S11305400E94460286E00E9446020895CF93C82F77
S113055061E070E080E290E00E94C6008C2F8295FA
S11305608F700E94060261E070E081E290E00E94D8
S1130570C60089EF90E00197F1F700C0000060E049
S113058070E081E290E00E94C60089EF90E001975C
S1130590F1F700C000008C2F8F700E94060261E00A
S11305A070E081E290E00E94C60089EF90E001973C
S11305B0F1F700C0000060E070E081E290E00E948A
S11305C0C60089EF90E00197F1F700C00000CF91D9
S11305D00895CF93DF93EC018881882331F021962D
S11305E00E94A60289918111FBCFDF91CF910895DA
S11305F080E487B987E886B9089597B18770982B06
S113060097B9369A349BFECF349A84B195B1089544
S1130610B09908C0B09906C021E22A95F1F700000C
S1130620B09BFACFB09903C0B09B15C0FBCFB09B71
S11306300AC080E090E0019621E22A95F1F70000DB
S1130640B099F9CF02C080E090E066E970E00E94C2
S11306503E06CB01089589EF90E00197F1F700C0C1
S11306600000B09BF8CFDECF10BC85E089B98AB119
S113067088618AB980B5866880BD08955D9BFECF88
S11306808CB90895CF93DF93EC018881882331F0EE
S113069021960E943E0389918111FBCFDF91CF9176
S11306A008951F920F920FB60F9211242F933F9328
S11306B04F935F936F937F938F939F93AF93BF9366
S11306C0EF93FF93B29B12C080910A0190910B01AA
S11306D0019690930B0180930A012FE18FEB92E036
S11306E0215080409040E1F700C0000088E00E9463
S11306F0460281E00E9446024AE06FE171E0809187
S11307000A0190910B010E9487068FE191E00E94FB
S1130710E902FF91EF91BF91AF919F918F917F91EA
S11307206F915F914F913F912F910F900FBE0F905A
S11307301F9018950E946B0288E00E94460281E097
S11307400E94460280E690E00E94E9022FE38DE0D9
S113075093E0215080409040E1F700C000000E94E7
S11307606B028CE690E00E94E9020E9434038DE75C
S113077090E00E9442038DE00E943E032FE38DE04F
S113078093E0215080409040E1F700C0000087E8EA
S113079090E00E9442032FE38DE093E021508040DB
S11307A09040E1F700C000008FE990E00E9442030E
S11307B02FE38DE093E0215080409040E1F700C0AA
S11307C000008AE10E943E032FE38DE093E0215074
S11307D080409040E1F700C000002FE38DE093E0FB
S11307E0215080409040E1F700C000002FE38DE0ED
S11307F093E0215080409040E1F700C000000E9447
S11308006B020E9404040895CF93DF93CDB7DEB743
S11308102F970FB6F894DEBF0FBECDBF88E00E94BD
S1130820460281E00E9446028CEB90E00E94E902BD
S11308302FE38DE093E0215080409040E1F700C029
S113084000002FE38DE093E0215080409040E1F7D9
S113085000C000008DEC90E00E94E9022FE38DE0DF
S113086093E0215080409040E1F700C000002FE366
S11308708DE093E0215080409040E1F700C00000FB
S11308800F2EF5EECF2EF0E0DF2EF02D7E0126E0C8
S1130890E20EF11CAE2CBF2C0E94F80280E00E94F4
S11308A0FD0290932B0180932A01BC0180E090E02B
S11308B00E94250520E030E040E85AE30E946605E6
S11308C020E030E04AEF53E40E9466058E010F5F9A
S11308D01F4F22E045E00E9466068CE00E9446021B
S11308E080E00E944602C8010E94E9028CE00E9456
S11308F0460286E00E9446028FED0E94A6028CE02A
S11309000E94460287E00E9446028AED90E00E941F
S1130910E9028CED90E00E94E9028FE39DE023E080
S1130920815090402040E1F700C000000E9408037D
S11309308C011F938F93DF92CF92FF92EF920E94CC
S1130940AC068A2D9B2D0E94E9028FE39DE023E0F3
S1130950815090402040E1F700C000008FE39DE00B
S113096023E0815090402040E1F700C000006091F6
S11309702A0170912B0180E090E00E94250520E07F
S113098030E040E85AE30E94660520E030E04AEF98
S113099053E40E9466050F900F900F900F900F90F4
S11309A00F902DEC3CEC44E152E40E9462051816D1
S11309B01CF0013511051CF0A89A0E949A03999B1A
S11309C06BCFA89869CFD1988DEF84BB80E187BBAA
S11309D08FEF81BB18BA0E9472020E946B0288E0FA
S11309E00E94460281E00E94460288EE90E00E9446
S11309F0E9028CE00E94460281E00E94460281EFF7
S1130A0090E00E94E90282E091E00E94E9022FE373
S1130A108DE093E0215080409040E1F700C0000059
S1130A202FE38DE093E0215080409040E1F700C037
S1130A3000000E946B020E94F80287EA91E6019787
S1130A40F1F700C000000E940404E89409C097FB79
S1130A503EF490958095709561957F4F8F4F9F4F91
S1130A609923A9F0F92F96E9BB279395F6958795D5
S1130A7077956795B795F111F8CFFAF4BB0F11F498
S1130A8060FF1BC06F5F7F4F8F4F9F4F16C088233F
S1130A9011F096E911C0772321F09EE8872F762F75
S1130AA005C0662371F096E8862F70E060E02AF0B6
S1130AB09A95660F771F881FDAF7880F96958795A2
S1130AC097F9089566D008F48FEF08950BD09CC071
S1130AD08DD028F092D018F0952309F07EC083C001
S1130AE01124C6C0A2D0A0F3959FD1F3950F50E076
S1130AF0551F629FF001729FBB27F00DB11D639FCC
S1130B00AA27F00DB11DAA1F649F6627B00DA11D71
S1130B10661F829F2227B00DA11D621F739FB00D17
S1130B20A11D621F839FA00D611D221F749F332787
S1130B30A00D611D231F849F600D211D822F762F20
S1130B406A2F11249F5750408AF0E1F088234AF01D
S1130B50EE0FFF1FBB1F661F771F881F9150504069
S1130B60A9F79E3F510570F038C082C05F3FECF397
S1130B70983EDCF3869577956795B795F795E79555
S1130B809F5FC1F7FE2B880F911D9695879597F966
S1130B900895990F0008550FAA0BE0E8FEEF16160A
S1130BA01706E807F907C0F012161306E407F5075D
S1130BB098F0621B730B840B950B39F40A2661F0D1
S1130BC0232B242B252B21F408950A2609F4A14074
S1130BD0A6958FEF811D811D089597F99F6780E881
S1130BE070E060E008959FEF80EC089500240A947B
S1130BF01616170618060906089500240A941216F4
S1130C001306140605060895092E0394000C11F426
S1130C10882352F0BB0F40F4BF2B11F460FF04C0D3
S1130C206F5F7F4F8F4F9F4F089557FD9058440F2C
S1130C30551F59F05F3F71F04795880F97FB991F37
S1130C4061F09F3F79F087950895121613061406F4
S1130C50551FF2CF4695F1DF08C016161706180681
S1130C60991FF1CF86957105610508940895E8945C
S1130C70BB2766277727CB0197F9089597FB072EA3
S1130C8016F4009407D077FD09D00E94520607FCA1
S1130C9005D03EF4909581959F4F08957095619588
S1130CA07F4F0895AA1BBB1B51E107C0AA1FBB1F9E
S1130CB0A617B70710F0A61BB70B881F991F5A95E4
S1130CC0A9F780959095BC01CD010895EF920F93FB
S1130CD01F93CF93DF93E80147FF02C034E101C0C3
S1130CE034E0E42FFF27E7FDF095F7FF03C0F1950B
S1130CF0E195F109E32E022F2E2FAE010E94A008E8
S1130D00CE01DF91CF911F910F91EF900895BB27F2
S1130D104A3031F4992322F4BDE2909581959F4F96
S1130D200C949306BB27FB015527AA27880F991F0C
S1130D30AA1FA41710F0A41B83955051B9F7A05D06
S1130D40AA3308F0A95DA193009779F7B111B19383
S1130D501192CB010C940C0BAEE0B0E0E2EBF6E0A8
S1130D600C94BA0B0D891E8986E08C831A8309833F
S1130D708FEF9FE79E838D83AE01475E5F4F6F8940
S1130D80788DCE0101960E94CE06EF81F885E00FA2
S1130D90F11F10822E96E4E00C94D60BACE0B0E088
S1130DA0E4EDF6E00C94AC0B7C016B018A01FC01D0
S1130DB017821682838181FFBDC1CE0101964C0149
S1130DC0F7019381F60193FD859193FF81916F0162
S1130DD0882309F4ABC1853239F493FD859193FFDF
S1130DE081916F01853229F4B70190E00E941C0BB8
S1130DF0E7CF512C312C20E02032A0F48B3269F063
S1130E0030F4803259F0833269F420612CC08D3281
S1130E1039F0803339F4216026C02260246023C075
S1130E20286021C027FD27C030ED380F3A3078F410
S1130E3026FF06C0FAE05F9E300D1124532E13C026
S1130E408AE0389E300D1124332E20620CC08E327D
S1130E5021F426FD6BC1206406C08C3611F4206891
S1130E6002C0883641F4F60193FD859193FF819188
S1130E706F018111C1CF982F9F7D9554933028F431
S1130E800C5F1F4FFFE3F9830DC0833631F08337C6
S1130E9071F0833509F05BC022C0F8018081898339
S1130EA00E5F1F4F44244394512C540115C0380144
S1130EB0F2E06F0E711CF801A080B18026FF03C020
S1130EC0652D70E002C06FEF7FEFC5012C870E9493
S1130ED0010B2C0183012C852F77222E17C038019A
S1130EE0F2E06F0E711CF801A080B18026FF03C0F0
S1130EF0652D70E002C06FEF7FEFC5012C870E9463
S1130F00F60A2C012C852068222E830123FC1BC0A9
S1130F10832D90E048165906B0F4B70180E290E0C2
S1130F200E941C0B3A94F4CFF50127FC859127FE0F
S1130F3081915F01B70190E00E941C0B31103A943B
S1130F40F1E04F1A51084114510471F7E5C0843699
S1130F5011F0893639F5F80127FF07C060817181E6
S1130F60828193810C5F1F4F08C060817181882743
S1130F7077FD8095982F0E5F1F4F2F76B22E97FF27
S1130F8009C090958095709561957F4F8F4F9F4FC5
S1130F902068B22E2AE030E0A4010E944E0BA82E55
S1130FA0A81844C0853729F42F7EB22E2AE030E0F9
S1130FB025C0F22FF97FBF2E8F36C1F018F4883583
S1130FC079F0B4C0803719F0883721F0AFC02F2FE3
S1130FD02061B22EB4FE0DC08B2D8460B82E09C0E2
S1130FE024FF0AC09F2F9660B92E06C028E030E087
S1130FF005C020E130E002C020E132E0F801B7FE94
S113100007C060817181828193810C5F1F4F06C08C
S11310106081718180E090E00E5F1F4FA4010E9407
S11310204E0BA82EA818FB2DFF77BF2EB6FE0BC0C3
S11310302B2D2E7FA51450F4B4FE0AC0B2FC08C0B8
S11310402B2D2E7E05C07A2C2B2D03C07A2C01C0AB
S1131050752C24FF0DC0FE01EA0DF11D8081803343
S113106011F4297E09C022FF06C07394739404C04E
S1131070822F867809F0739423FD13C020FF06C0E5
S11310805A2C731418F4530C5718732C731468F4F3
S1131090B70180E290E02C870E941C0B73942C858E
S11310A0F5CF731410F4371801C0312C24FF12C08B
S11310B0B70180E390E02C870E941C0B2C8522FF53
S11310C017C021FF03C088E590E002C088E790E0E4
S11310D0B7010CC0822F867859F021FD02C080E24E
S11310E001C08BE227FD8DE2B70190E00E941C0B4A
S11310F0A51438F4B70180E390E00E941C0B5A94C5
S1131100F7CFAA94F401EA0DF11D8081B70190E0B4
S11311100E941C0BA110F5CF332009F451CEB70166
S113112080E290E00E941C0B3A94F6CFF70186818E
S1131130978102C08FEF9FEF2C96E2E10C94C80BCD
S11311406F927F929F92AF92BF92CF92DF92EF9273
S1131150FF920F931F93CF93DF93CDB7DEB72997F9
S11311600FB6F894DEBF0FBECDBF6A01B22E102FAA
S11311700C3320F4FF24F394F00E02C04CE3F42E5D
S11311800F2D27E0AE014F5F5F4F0E941E0A798149
S1131190272F2970213031F0E1FC06C0E0FC06C0A5
S11311A060E005C06DE203C06BE201C060E2AE2DF9
S11311B0A07173FF36C0662311F084E001C083E0A0
S11311C08B1510F4B81A01C0B12CA1110BC0F60193
S11311D08B2D90E2882319F091938150FBCFCB0C97
S11311E0D11CB12C662331F0F601608396012F5F88
S11311F03F4F6901C6010396E2FE05C02EE4F601E5
S1131200208331E404C02EE6F601208331E63183E5
S11312102283FC012B2D30E22223F1F13193215062
S1131220FBCF72FF40C0662311F084E001C083E06D
S11312308B1510F4B81A01C0B12CA1110BC0F60122
S11312408B2D90E2882319F091938150FBCFCB0C26
S1131250D11CB12C662331F0F601608396012F5F17
S11312603F4F6901C6010396E2FE07C029E4F60177
S113127020832EE4218326E406C029E6F601208398
S11312802EE6218326E62283FC012B2D30E2222345
S113129019F031932150FBCFFC01EB0DF11D1082AD
S11312A08EEF9FEFB7C0B1E0611101C0B0E04B2FEA
S11312B050E01816190624F49C012F5F3F4F02C01A
S11312C021E030E0240F351F112329F0412F50E095
S11312D04F5F5F4F02C040E050E0420F531F2B2D81
S11312E030E04217530714F4B41A01C0B12C2E2D68
S11312F0287159F4F6012B2D30E2222319F0319391
S11313002150FBCFCB0CD11CB12CBB2331F0F60107
S1131310608396012F5F3F4F6901A1110BC0F60155
S11313202B2D30E3222319F031932150FBCFCB0C2A
S1131330D11CB12CF80E0A81372F3071A32E74FF03
S113134003C0013309F4FA941F142CF42F2D29300F
S113135018F028E001C021E0682F392F97FF02C060
S113136060E030E0462F532F612C712C3EE2932E27
S1131370BC01621B71099B01DC01A41BB50BE1E0FC
S1131380F0E0EC0FFD1FAE0FBF1FE12EF12CF19426
S1131390E194F1084F3FFFEF5F0731F4F6019082CB
S11313A0B6016F5F7F4F6B01841795074CF02417CC
S11313B0350734F4BD01660D771DFB01118101C0B1
S11313C010E341505109FFEF6F1A7F0AB6016F5FB6
S11313D07F4F4E155F0524F0F60110836B01DACFC1
S11313E04817590739F4063320F4053319F4A110CA
S11313F001C011E3F6011083FB018B2D90E28823D9
S113140019F091938150FBCFFB01EB0DF11D10827C
S113141080E090E029960FB6F894DEBF0FBECDBFF2
S1131420DF91CF911F910F91FF90EF90DF90CF90BC
S1131430BF90AF909F907F906F900895283008F0F0
S113144027E03327DA01990F311D87FD916000965B
S11314506105710539F432602E5F3D9330E32A95BE
S1131460E1F708959F3F30F080387105610509F078
S11314703C5F3C5F3D93913008F08068911DDF93A1
S1131480CF931F930F93FF92EF92192F987F969506
S1131490E92F96959695E90FFF27E255FF4F992777
S11314A03327EE24FF24A701E7010590089407944D
S11314B028F4360FE71EF81E491F511D660F771FCB
S11314C0881F991F0694A1F70590079428F4E70E46
S11314D0F81E491F561FC11D770F881F991F661FCD
S11314E00694A1F70590079428F4F80E491F561F97
S11314F0C71FD11D880F991F661F771F0694A1F778
S11315000590079420F4490F561FC71FD81F990F41
S1131510661F771F881F0694A9F78491109517708A
S113152041F0D695C79557954795F794E7941A9542
S1131530C1F7E4E5F0E06894159015913591659153
S1131540959105907FE27395E118F10A430B560BD0
S1131550C90BD009C0F7E10CF11E431F561FC91F68
S1131560D01D7EF4703311F48A95E6CFE8940150CF
S113157030F0080F0AF40027021708F4202F2395EF
S1131580022F7A3328F079E37D932A95E9F710C086
S11315907D932A9589F606949795679537951795BF
S11315A01794E118F10A430B560BC90BD00998F0B4
S11315B023957E9173957A3308F070E37C9320131E
S11315C0B8F77E9170617D9330F0839571E37D93DC
S11315D070E32A95E1F71124EF90FF900F911F918A
S11315E0CF91DF91992787FD90950895FC0105908F
S11315F0615070400110D8F7809590958E0F9F1F11
S11316000895FC016150704001900110D8F7809555
S113161090958E0F9F1F0895DC01FC01672F719137
S11316207723E1F7329704C07C916D9370836291C4
S1131630AE17BF07C8F308950F931F93CF93DF939B
S1131640182F092FEB018B8181FD03C08FEF9FEFD2
S113165020C082FF10C04E815F812C813D814217E2
S113166053077CF4E881F9819F012F5F3F4F398351
S11316702883108306C0E885F985812F0995892B75
S113168029F72E813F812F5F3F4F3F832E83812F88
S1131690902FDF91CF911F910F910895FA01AA27FE
S11316A0283051F1203181F1E8946F936E7F6E5FA1
S11316B07F4F8F4F9F4FAF4FB1E03ED0B4E03CD04F
S11316C0670F781F891F9A1FA11D680F791F8A1F32
S11316D0911DA11D6A0F711D811D911DA11D20D099
S11316E009F468943F912AE0269F11243019305D53
S11316F03193DEF6CF010895462F4770405D419344
S1131700B3E00FD0C9F7F6CF462F4F70405D4A3390
S113171018F0495D31FD4052419302D0A9F7EACF58
S1131720B4E0A6959795879577956795BA95C9F787
S113173000976105710508959B01AC010A2E06947A
S11317405795479537952795BA95C9F7620F731F33
S1131750841F951FA01D08952F923F924F925F9270
S11317606F927F928F929F92AF92BF92CF92DF92AD
S1131770EF92FF920F931F93CF93DF93CDB7DEB712
S1131780CA1BDB0B0FB6F894DEBF0FBECDBF0994A6
S11317902A88398848885F846E847D848C849B84FD
S11317A0AA84B984C884DF80EE80FD800C811B810B
S11317B0AA81B981CE0FD11D0FB6F894DEBF0FBE3A
S10D17C0CDBFED010895F894FFCFAA
S11317CA53656E64696E67204D534700536574749C
S11317DA696E6720554152542E2E2E2E0041542BE9
S11317EA434D47463D310041542B434D47533D2217
S11317FA2B3934373138373234363731220D0059E0
S113180A6F75722070617469656E742069732069DA
S113181A6E20612074726F75626C650054656D7018
S113182A657261747572653A20202020004845412A
S113183A52542052415445202000430020202020A5
S113184A202020200025640050415449454E54204C
S113185A004D4F4E49544F52494E472020202020D4
S10D186A200053595354454D00006B
S9030000FC
